{
  "_format": "hh-sol-artifact-1",
  "contractName": "ProgressPayment",
  "sourceName": "contracts/ProgressPayment.sol",
  "abi": [
    {
      "inputs": [],
      "stateMutability": "nonpayable",
      "type": "constructor"
    },
    {
      "inputs": [
        {
          "internalType": "string",
          "name": "id",
          "type": "string"
        }
      ],
      "name": "checkPriceById",
      "outputs": [
        {
          "internalType": "uint256",
          "name": "",
          "type": "uint256"
        }
      ],
      "stateMutability": "view",
      "type": "function"
    },
    {
      "inputs": [],
      "name": "owner",
      "outputs": [
        {
          "internalType": "address",
          "name": "",
          "type": "address"
        }
      ],
      "stateMutability": "view",
      "type": "function"
    },
    {
      "inputs": [
        {
          "internalType": "string[]",
          "name": "ids",
          "type": "string[]"
        },
        {
          "internalType": "uint256[]",
          "name": "prices",
          "type": "uint256[]"
        }
      ],
      "name": "setConstructionElements",
      "outputs": [],
      "stateMutability": "nonpayable",
      "type": "function"
    }
  ],
  "bytecode": "0x608060405234801561001057600080fd5b5033600260006101000a81548173ffffffffffffffffffffffffffffffffffffffff021916908373ffffffffffffffffffffffffffffffffffffffff1602179055506106e3806100616000396000f3fe608060405234801561001057600080fd5b50600436106100415760003560e01c806319a5f91a146100465780638da5cb5b14610076578063a9d5c57014610094575b600080fd5b610060600480360381019061005b919061046a565b6100b0565b60405161006d919061052c565b60405180910390f35b61007e6100fe565b60405161008b9190610511565b60405180910390f35b6100ae60048036038101906100a991906103fe565b610124565b005b600080826040516020016100c491906104fa565b6040516020818303038152906040528051906020012090506000600160008381526020019081526020016000205490508092505050919050565b600260009054906101000a900473ffffffffffffffffffffffffffffffffffffffff1681565b600260009054906101000a900473ffffffffffffffffffffffffffffffffffffffff1673ffffffffffffffffffffffffffffffffffffffff163373ffffffffffffffffffffffffffffffffffffffff1614156101e45760005b82518110156101e25761018e610284565b60405180604001604052808584815181106101a557fe5b602002602001015181526020018484815181106101be57fe5b602002602001015181525090506101d4816101e8565b50808060010191505061017d565b505b5050565b600081600001516040516020016101ff91906104fa565b604051602081830303815290604052805190602001209080600181540180825580915050600190039060005260206000200160009091909190915055806020015160016000836000015160405160200161025991906104fa565b6040516020818303038152906040528051906020012081526020019081526020016000208190555050565b604051806040016040528060608152602001600081525090565b600082601f8301126102af57600080fd5b81356102c26102bd82610578565b610547565b9150818183526020840193506020810190508360005b8381101561030857813586016102ee8882610395565b8452602084019350602083019250506001810190506102d8565b5050505092915050565b600082601f83011261032357600080fd5b8135610336610331826105a4565b610547565b9150818183526020840193506020810190508385602084028201111561035b57600080fd5b60005b8381101561038b578161037188826103e9565b84526020840193506020830192505060018101905061035e565b5050505092915050565b600082601f8301126103a657600080fd5b81356103b96103b4826105d0565b610547565b915080825260208301602083018583830111156103d557600080fd5b6103e0838284610652565b50505092915050565b6000813590506103f881610696565b92915050565b6000806040838503121561041157600080fd5b600083013567ffffffffffffffff81111561042b57600080fd5b6104378582860161029e565b925050602083013567ffffffffffffffff81111561045457600080fd5b61046085828601610312565b9150509250929050565b60006020828403121561047c57600080fd5b600082013567ffffffffffffffff81111561049657600080fd5b6104a284828501610395565b91505092915050565b6104b481610616565b82525050565b60006104c582610600565b6104cf818561060b565b93506104df818560208601610661565b80840191505092915050565b6104f481610648565b82525050565b600061050682846104ba565b915081905092915050565b600060208201905061052660008301846104ab565b92915050565b600060208201905061054160008301846104eb565b92915050565b6000604051905081810181811067ffffffffffffffff8211171561056e5761056d610694565b5b8060405250919050565b600067ffffffffffffffff82111561059357610592610694565b5b602082029050602081019050919050565b600067ffffffffffffffff8211156105bf576105be610694565b5b602082029050602081019050919050565b600067ffffffffffffffff8211156105eb576105ea610694565b5b601f19601f8301169050602081019050919050565b600081519050919050565b600081905092915050565b600061062182610628565b9050919050565b600073ffffffffffffffffffffffffffffffffffffffff82169050919050565b6000819050919050565b82818337600083830152505050565b60005b8381101561067f578082015181840152602081019050610664565b8381111561068e576000848401525b50505050565bfe5b61069f81610648565b81146106aa57600080fd5b5056fea264697066735822122037caaff9fb8f7e620a7d49f92ae06e5ded3ea5c7a3d6d311bf12d7b1d4bca5e064736f6c63430007030033",
  "linkReferences": {},
  "deployedLinkReferences": {}
}