{
  "_format": "hh-sol-artifact-1",
  "contractName": "ProgressPayment",
  "sourceName": "contracts/ProgressPayment.sol",
  "abi": [
    {
      "inputs": [],
      "stateMutability": "payable",
      "type": "constructor"
    },
    {
      "inputs": [
        {
          "internalType": "string",
          "name": "id",
          "type": "string"
        }
      ],
      "name": "checkPriceById",
      "outputs": [
        {
          "internalType": "uint256",
          "name": "",
          "type": "uint256"
        }
      ],
      "stateMutability": "view",
      "type": "function"
    },
    {
      "inputs": [],
      "name": "owner",
      "outputs": [
        {
          "internalType": "address payable",
          "name": "",
          "type": "address"
        }
      ],
      "stateMutability": "view",
      "type": "function"
    },
    {
      "inputs": [
        {
          "internalType": "string[]",
          "name": "ids",
          "type": "string[]"
        }
      ],
      "name": "payElements",
      "outputs": [],
      "stateMutability": "payable",
      "type": "function"
    },
    {
      "inputs": [
        {
          "internalType": "address",
          "name": "contractor",
          "type": "address"
        },
        {
          "internalType": "string[]",
          "name": "ids",
          "type": "string[]"
        },
        {
          "internalType": "uint256[]",
          "name": "prices",
          "type": "uint256[]"
        }
      ],
      "name": "setConstructionElements",
      "outputs": [],
      "stateMutability": "nonpayable",
      "type": "function"
    },
    {
      "stateMutability": "payable",
      "type": "receive"
    }
  ],
  "bytecode": "0x608060405233600360006101000a81548173ffffffffffffffffffffffffffffffffffffffff021916908373ffffffffffffffffffffffffffffffffffffffff1602179055506109ad806100546000396000f3fe6080604052600436106100435760003560e01c806319a5f91a1461004f578063340ff17d1461008c5780638da5cb5b146100b5578063a87a0572146100e05761004a565b3661004a57005b600080fd5b34801561005b57600080fd5b506100766004803603810190610071919061070b565b6100fc565b60405161008391906107cd565b60405180910390f35b34801561009857600080fd5b506100b360048036038101906100ae919061064b565b61014a565b005b3480156100c157600080fd5b506100ca610250565b6040516100d791906107b2565b60405180910390f35b6100fa60048036038101906100f591906106ca565b610276565b005b60008082604051602001610110919061079b565b6040516020818303038152906040528051906020012090506000600260008381526020019081526020016000205490508092505050919050565b600360009054906101000a900473ffffffffffffffffffffffffffffffffffffffff1673ffffffffffffffffffffffffffffffffffffffff163373ffffffffffffffffffffffffffffffffffffffff16141561024b5782600460006101000a81548173ffffffffffffffffffffffffffffffffffffffff021916908373ffffffffffffffffffffffffffffffffffffffff16021790555060005b8251811015610249576101f56104bc565b604051806040016040528085848151811061020c57fe5b6020026020010151815260200184848151811061022557fe5b6020026020010151815250905061023b816103a1565b5080806001019150506101e4565b505b505050565b600360009054906101000a900473ffffffffffffffffffffffffffffffffffffffff1681565b6000805b82518110156103335761029f83828151811061029257fe5b602002602001015161043d565b610326576102bf8382815181106102b257fe5b60200260200101516100fc565b8201915060018382815181106102d157fe5b60200260200101516040516020016102e9919061079b565b6040516020818303038152906040528051906020012090806001815401808255809150506001900390600052602060002001600090919091909150555b808060010191505061027a565b50600460009054906101000a900473ffffffffffffffffffffffffffffffffffffffff1673ffffffffffffffffffffffffffffffffffffffff166108fc829081150290604051600060405180830381858888f1935050505015801561039c573d6000803e3d6000fd5b505050565b600081600001516040516020016103b8919061079b565b6040516020818303038152906040528051906020012090806001815401808255809150506001900390600052602060002001600090919091909150558060200151600260008360000151604051602001610412919061079b565b6040516020818303038152906040528051906020012081526020019081526020016000208190555050565b60008082604051602001610451919061079b565b60405160208183030381529060405280519060200120905060005b6001805490508110156104b0576001818154811061048657fe5b90600052602060002001548214156104a3576001925050506104b7565b808060010191505061046c565b5060009150505b919050565b604051806040016040528060608152602001600081525090565b6000813590506104e581610949565b92915050565b600082601f8301126104fc57600080fd5b813561050f61050a82610819565b6107e8565b9150818183526020840193506020810190508360005b83811015610555578135860161053b88826105e2565b845260208401935060208301925050600181019050610525565b5050505092915050565b600082601f83011261057057600080fd5b813561058361057e82610845565b6107e8565b915081818352602084019350602081019050838560208402820111156105a857600080fd5b60005b838110156105d857816105be8882610636565b8452602084019350602083019250506001810190506105ab565b5050505092915050565b600082601f8301126105f357600080fd5b813561060661060182610871565b6107e8565b9150808252602083016020830185838301111561062257600080fd5b61062d838284610905565b50505092915050565b60008135905061064581610960565b92915050565b60008060006060848603121561066057600080fd5b600061066e868287016104d6565b935050602084013567ffffffffffffffff81111561068b57600080fd5b610697868287016104eb565b925050604084013567ffffffffffffffff8111156106b457600080fd5b6106c08682870161055f565b9150509250925092565b6000602082840312156106dc57600080fd5b600082013567ffffffffffffffff8111156106f657600080fd5b610702848285016104eb565b91505092915050565b60006020828403121561071d57600080fd5b600082013567ffffffffffffffff81111561073757600080fd5b610743848285016105e2565b91505092915050565b610755816108c9565b82525050565b6000610766826108a1565b61077081856108ac565b9350610780818560208601610914565b80840191505092915050565b610795816108fb565b82525050565b60006107a7828461075b565b915081905092915050565b60006020820190506107c7600083018461074c565b92915050565b60006020820190506107e2600083018461078c565b92915050565b6000604051905081810181811067ffffffffffffffff8211171561080f5761080e610947565b5b8060405250919050565b600067ffffffffffffffff82111561083457610833610947565b5b602082029050602081019050919050565b600067ffffffffffffffff8211156108605761085f610947565b5b602082029050602081019050919050565b600067ffffffffffffffff82111561088c5761088b610947565b5b601f19601f8301169050602081019050919050565b600081519050919050565b600081905092915050565b60006108c2826108db565b9050919050565b60006108d4826108db565b9050919050565b600073ffffffffffffffffffffffffffffffffffffffff82169050919050565b6000819050919050565b82818337600083830152505050565b60005b83811015610932578082015181840152602081019050610917565b83811115610941576000848401525b50505050565bfe5b610952816108b7565b811461095d57600080fd5b50565b610969816108fb565b811461097457600080fd5b5056fea26469706673582212200a11e6d19a19629f773987d90b38b74c7a2ffcf69863758bd000a3fa029426b964736f6c63430007030033",
  "linkReferences": {},
  "deployedLinkReferences": {}
}