{
  "contractName": "GBContract",
  "abi": [
    {
      "inputs": [],
      "stateMutability": "nonpayable",
      "type": "constructor"
    },
    {
      "inputs": [],
      "name": "owner",
      "outputs": [
        {
          "internalType": "address",
          "name": "",
          "type": "address"
        }
      ],
      "stateMutability": "view",
      "type": "function",
      "constant": true
    },
    {
      "inputs": [
        {
          "components": [
            {
              "internalType": "string",
              "name": "id",
              "type": "string"
            },
            {
              "internalType": "uint256",
              "name": "price",
              "type": "uint256"
            }
          ],
          "internalType": "struct GBContract.ConstructionElement[]",
          "name": "props",
          "type": "tuple[]"
        }
      ],
      "name": "setConstructionElements",
      "outputs": [],
      "stateMutability": "nonpayable",
      "type": "function"
    }
  ],
  "bytecode": "0x608060405234801561001057600080fd5b50600280546001600160a01b031916331790556103bd806100326000396000f3fe608060405234801561001057600080fd5b50600436106100365760003560e01c80634f92c4241461003b5780638da5cb5b14610050575b600080fd5b61004e6100493660046101cc565b61007f565b005b600254610063906001600160a01b031681565b6040516001600160a01b03909116815260200160405180910390f35b6002546001600160a01b031633036100d35760005b81518110156100d1576100bf8282815181106100b2576100b261031b565b60200260200101516100d6565b806100c981610331565b915050610094565b505b50565b80516040516000916100ea91602001610358565b60408051601f198184030181529082905280516020918201208354600181810186556000958652838620909101919091558482015185519094919391926101319201610358565b6040516020818303038152906040528051906020012081526020019081526020016000208190555050565b634e487b7160e01b600052604160045260246000fd5b6040805190810167ffffffffffffffff811182821017156101955761019561015c565b60405290565b604051601f8201601f1916810167ffffffffffffffff811182821017156101c4576101c461015c565b604052919050565b600060208083850312156101df57600080fd5b823567ffffffffffffffff808211156101f757600080fd5b818501915085601f83011261020b57600080fd5b81358181111561021d5761021d61015c565b8060051b61022c85820161019b565b918252838101850191858101908984111561024657600080fd5b86860192505b8383101561030e578235858111156102645760008081fd5b86016040601f19828d03810182131561027d5760008081fd5b610285610172565b8a840135898111156102975760008081fd5b8401603f81018f136102a95760008081fd5b8b8101358a8111156102bd576102bd61015c565b6102cd8d85601f8401160161019b565b93508084528f858284010111156102e45760008081fd5b808583018e86013760009084018d015250908152910135818901528252918601919086019061024c565b9998505050505050505050565b634e487b7160e01b600052603260045260246000fd5b60006001820161035157634e487b7160e01b600052601160045260246000fd5b5060010190565b6000825160005b81811015610379576020818601810151858301520161035f565b50600092019182525091905056fea2646970667358221220f48472ecdb9a06a01a38e7baebdba91cc24a99948bf521c00a90fc17da7d694864736f6c63430008110033",
  "immutableReferences": {},
  "source": "// SPDX-License-Identifier: GPL-3.0\r\n\r\npragma solidity >=0.7.0 <0.9.0;\r\n\r\ncontract GBContract {\r\n    // string public disappoveReason;\r\n    bytes32[] private ConstructionElements;\r\n    // bytes32[] public ElementsPaid;\r\n    mapping( bytes32=>uint) private MCObjectPrices;\r\n    address public owner;\r\n    // bool public requestRaised = false;\r\n    constructor(){\r\n        owner=msg.sender;\r\n    }\r\n    modifier restricted(){\r\n        if(msg.sender == owner) _;\r\n    }\r\n\r\n    struct ConstructionElement{\r\n        string id;\r\n        uint price;\r\n    }\r\n    function setConstructionElements(ConstructionElement[] memory props) public restricted {\r\n        // disappoveReason=\"\";\r\n        for(uint i=0; i<props.length; i++){\r\n            addObject(props[i]);\r\n        }\r\n    }    \r\n    //function to add the BIM elements and their cost\r\n    function addObject(ConstructionElement memory element) private {\r\n        ConstructionElements.push(keccak256(abi.encodePacked(element.id)));\r\n        MCObjectPrices[keccak256(abi.encodePacked(element.id))] = element.price;\r\n    }\r\n}",
  "sourcePath": "D:\\07 Blockchain\\projects\\bc_dashboard\\frontend\\contracts\\GBContract.sol",
  "compiler": {
    "name": "solc",
    "version": "0.8.17+commit.8df45f5f.Emscripten.clang"
  },
  "schemaVersion": "3.4.10",
  "updatedAt": "2022-11-20T13:30:17.809Z",
  "networkType": "ethereum",
  "devdoc": {
    "kind": "dev",
    "methods": {},
    "version": 1
  },
  "userdoc": {
    "kind": "user",
    "methods": {},
    "version": 1
  }
}